:1000000012C12CC12BC12AC129C128C127C126C1B7
:1000100025C124C123C1B3C1DEC120C11FC11EC17E
:100020001DC11CC11BC178A46AD756B7C7E8DB70D5
:100030002024EECEBDC1AF0F7CF52AC687471346FC
:1000400030A8019546FDD8988069AFF7448BB15B25
:10005000FFFFBED75C892211906B937198FD8E4390
:1000600079A62108B44962251EF640B340C0515A12
:100070005E26AAC7B6E95D102FD65314440281E666
:10008000A1D8C8FBD3E7E6CDE121D60737C3870D5A
:10009000D5F4ED145A4505E9E3A9F8A3EFFCD9021C
:1000A0006F678A4C2A8D4239FAFF81F67187226187
:1000B0009D6D0C38E5FD44EABEA4A9CFDE4B604B34
:1000C000BBF670BCBFBEC67E9B28FA27A1EA85306E
:1000D000EFD4051D880439D0D4D9E599DBE6F87C46
:1000E000A21F6556ACC4442229F497FF2A43A723D4
:1000F00094AB39A093FCC3595B6592CC0C8F7DF413
:10010000EFFFD15D84854F7EA86FE0E62CFE14439F
:1001100001A3A111084E827E53F735F23ABDBBD23E
:10012000D72A91D386EB070000000C0000001100D5
:10013000000016000000070000000C000000110085
:10014000000016000000070000000C000000110075
:10015000000016000000070000000C000000110065
:1001600000001600000005000000090000000E005D
:1001700000001400000005000000090000000E004F
:1001800000001400000005000000090000000E003F
:1001900000001400000005000000090000000E002F
:1001A000000014000000040000000B00000010001C
:1001B000000017000000040000000B000000100009
:1001C000000017000000040000000B0000001000F9
:1001D000000017000000040000000B0000001000E9
:1001E000000017000000060000000A0000000F00D9
:1001F000000015000000060000000A0000000F00CB
:10020000000015000000060000000A0000000F00BA
:10021000000015000000060000000A0000000F00AA
:1002200000001500000011241FBECFE5D4E0DEBFA2
:10023000CDBF12E0A0E6B0E0E8EEF8E102C0059024
:100240000D92AE35B107D9F723E0AEE5B2E001C0BB
:100250001D92A936B207E1F781D5F0CAD1CEC19877
:10026000B99AAA9AC49AC59AAC9AAB9881B38C6F82
:1002700081BB84B3836084BB089583EA90E015D189
:1002800087EC90E012D187ED90E00FD181E091E012
:100290000CD182E291E009D189E391E006D18DE4AD
:1002A00091E003D18AE691E000D18CE791E0FDD0A6
:1002B0008AE891E0FAD089E991E0F7D081EB91E00A
:1002C000F4D08FEC91E0F1D08FEE91E0EEC025B349
:1002D0002C7F382F3370232B25BB22B323708C7FC8
:1002E000822B82BB00000000C29A0000C29800006E
:1002F00085B38C7F292F2370822B85BB82B38370BB
:100300009C7F892B82BB00000000C09A0000C0982F
:1003100000000895CF93C62FDADF85B38C7F9C2F22
:100320009370892B85BB82B38370CC7F8C2B82BB6F
:100330000000C5980000AA980000AA9A0000C59A7B
:10034000CF910895C4DF84B38C7F84BB81B3837065
:1003500081BB85B3836085BB82B38C6F82BBC5983C
:10036000C49893B380B3C49AC59A24B3236024BBC2
:1003700021B32C6F21BB93708C7F892B08951F9222
:100380000F920FB60F9211242F938F939F93EF9399
:10039000FF939BB12CB1E0916602EF5FEF77809104
:1003A00065028E17B1F09871E0936602F0E0E759AC
:1003B000FD4F208380916402892B80936402FF911A
:1003C000EF919F918F912F910F900FBE0F901F90E3
:1003D000189592E0EFCF1F920F920FB60F92112453
:1003E0008F939F93EF93FF939091680280916702A0
:1003F0009817A1F0E0916702EF5FEF77E093670253
:10040000F0E0E751FD4F80818CB9FF91EF919F9112
:100410008F910F900FBE0F901F9018955598F5CFA4
:100420009C0110926802109267021092660210926C
:10043000650297FF02C082E08BB9832F807880BD70
:1004400029B988E98AB986E880BD08959091660245
:10045000809165029817A9F0909165029F5F9F7740
:10046000E92FF0E0E759FD4F2081809164029093DD
:1004700065021092640290E0982F8827820F911DE8
:10048000089580E091E00895209168022F5F2F7712
:10049000909167029217E1F3E22FF0E0E751FD4FF0
:1004A000808320936802559A0895DC012C912115D0
:1004B000A1F01196909168029F5F9F7780916702EB
:1004C0009817E1F3E92FF0E0E751FD4F2083909377
:1004D0006802559A2D912111EDCF0895FC010196E6
:1004E00024912115A9F0FC01909168029F5F9F77EC
:1004F000809167029817E1F3A92FB0E0A751BD4F93
:100500002C9390936802559A249131962111ECCF47
:100510000895CF92DF92EF92FF920F931F93F82FDF
:10052000E92FCB01AF2FBE2F022F132F6C017D01BE
:1005300004C0CC0CDD1CEE1CFF1C2A95D2F71195D3
:10054000019511090F711127BC01CD0104C09695C9
:100550008795779567950A95D2F76C297D298E291D
:100560009F291F910F91FF90EF90DF90CF900895FA
:10057000FC0110821182128213821482158216826B
:10058000178281E093E2A5E4B7E680879187A2878E
:10059000B38789E89BEAADECBFEE84879587A68791
:1005A000B7878EEF9CEDAAEBB8E9808B918BA28B7D
:1005B000B38B86E794E5A2E3B0E1848B958BA68BA1
:1005C000B78B08952F923F924F925F926F927F92D6
:1005D0008F929F92AF92BF92CF92DF92EF92FF9253
:1005E0000F931F93CF93DF93CDB7DEB7A8970FB6C6
:1005F000F894DEBF0FBECDBF898B9A8B6F87788B47
:10060000A989BA894D905D906D907C9013974B8A23
:100610005C8A6D8A7E8A14964D905D906D907C9078
:1006200017974F8A588E698E7A8E18964D905D90E6
:100630006D907C901B974B8E5C8E6D8E7E8E1C9683
:100640004D905D906D907C901F974F8E58A269A23F
:100650007AA286E291E09C838B83A6E2B0E0BA8323
:10066000A983730162018B8C9C8CAD8CBE8C0F892D
:10067000188D298D3A8D4B895C896D897E891E86FE
:100680001D8685E090E09C878B87A1E0B0E0BA876B
:10069000A987212C312C94C0892B09F0CDC0D5011C
:1006A000C4018C259D25AE25BF2580239123A2233F
:1006B000B3232C013D014C245D246E247F244DA2E4
:1006C0005EA26FA278A6C101EB81FC814590559096
:1006D000659075904D825E826F827886E981FA819D
:1006E0004590559065907590DC01AA0FBB1FAA0F2D
:1006F000BB1F8F8598898A0F9B1F9CA38BA38DA1FD
:100700009EA1AFA1B8A5840D951DA61DB71DEBA197
:10071000FCA14080518062807380840D951DA61DD0
:10072000B71D480F591F6A1F7B1FDB01CA010D80CF
:1007300004C0880F991FAA1FBB1F0A94D2F7ED812E
:10074000FE81F195E195F109EF71FF2704C07695DF
:10075000679557954795EA95D2F7842B952BA62B4D
:10076000B72B2C013D01400E511E621E731EFFEF80
:100770002F1A3F0A8B819C8104969C838B83A981CD
:10078000BA811496BA83A98389859A8505969A8732
:100790008987AB85BC851396BC87AB878D859E8585
:1007A00007969E878D87B701A60190E4291631042C
:1007B00009F45BC07501640148015901930182018C
:1007C000C101929582958F7089279F70892781300A
:1007D0009105C9F08230910509F05ECFD901C801B9
:1007E00088259925AA25BB252C013D014C245D2493
:1007F0006E247F244DA25EA26FA278A68B859C8575
:100800008F70992761CFD901C80188259925AA251C
:10081000BB258C219D21AE21BF212C013D01482407
:1008200059246A247B244DA25EA26FA278A68985F2
:100830009A858F70992748CFD701C60180959095EA
:10084000A095B095802B912BA22BB32B2C013D01B1
:10085000482459246A247B244DA25EA26FA278A664
:100860008D859E858F7099272FCF8B899C89AD8927
:10087000BE89C80ED91EEA1EFB1EA989BA89CD926F
:10088000DD92ED92FC9213978F89988DA98DBA8D88
:10089000480E591E6A1E7B1EA989BA8914964D926C
:1008A0005D926D927C9217974B8C5C8C6D8C7E8CDC
:1008B000040D151D261D371D18960D931D932D93A0
:1008C0003C931B974F8C58A069A07AA0840C951C70
:1008D000A61CB71C1C968D929D92AD92BC921F9740
:1008E000A8960FB6F894DEBF0FBECDBFDF91CF91B3
:1008F0001F910F91FF90EF90DF90CF90BF90AF903E
:100900009F908F907F906F905F904F903F902F902F
:1009100008952F923F924F925F926F927F928F92A3
:100920009F92AF92BF92CF92DF92EF92FF920F937E
:100930001F93CF93DF93CDB7DEB7C854D1090FB65D
:10094000F894DEBF0FBECDBF4C01762E672EDA01C4
:10095000FC01F0812296FFAF2297FC01F1812396E2
:10096000FFAF2397FC01F2812496FFAF2497FC018F
:10097000F3812596FFAF2597FC01F4812696FFAF02
:100980002697FC01F5812796FFAF2797FC01F6819A
:100990002896FFAF2897FC01F7812996FFAF29978A
:1009A00023964EAC5FAC23978FE3482255249A01DF
:1009B00040E050E060E070E080E090E02296AFAC74
:1009C00022972396BFAC23972496CFAC24972596E5
:1009D000DFAC25972696EFAC26972796FFAC279796
:1009E00028960FAD28971F2F41D4F401208331831F
:1009F000428353836483758386839783109709F4B6
:100A000059C0E72CF62C5701AA0EBB1E8E010F5BB6
:100A10001F4F3401F8E06F0E711CF201CF010196F7
:100A2000D7012D916D01E80DF91D208F9C012F73C9
:100A30003327232B09F058C0F40178969E012F5FCD
:100A40003F4F4381828190E0A0E0B0E0DC01992734
:100A50008827B42B4081842B41811C012D01342A2D
:100A6000D9012D923D924D925D929D0134960A17C7
:100A70001B0739F7BE016F5F7F4FC301A3DDAC14C5
:100A8000BD04C1F0F6018081D40158968C9358972B
:100A9000C70102968A159B0569F0F7018281F3E090
:100AA000EF0EF11C59968C93E2E0F0E0EA14FB049F
:100AB00009F0B4CFC85BDF4F0FB6F894DEBF0FBEAE
:100AC000CDBFDF91CF911F910F91FF90EF90DF90FD
:100AD000CF90BF90AF909F908F907F906F905F90DE
:100AE0004F903F902F9008957D01FC01DFCF4F92F2
:100AF0005F926F927F928F929F92AF92BF92CF92AE
:100B0000DF92EF92FF920F931F93CF93DF93CDB7B6
:100B1000DEB7C854D1090FB6F894DEBF0FBECDBF03
:100B20004C01FC01008111810F731127083311055D
:100B300008F0B2C088E390E09C01201B310B8901D2
:100B4000A80163E670E0C401E4DE980140E050E0F3
:100B500060E070E0CB0122960FAF229723963FAF63
:100B6000239724964FAF249725965FAF2597269617
:100B70006FAF269727967FAF279728968FAF289736
:100B800029969FAF2997F4012081318142815381B9
:100B900064817581868197812296AFAC22972396D6
:100BA000BFAC2397C12CD12CE12CF12C00E010E03C
:100BB00066D3208331834283538364837583868322
:100BC00097837401F8E1EF0EF11CF701DE01119635
:100BD0008E01075C1F4FD3804280512C612C712CF9
:100BE0003201552444247D28D0804D28D1805D28B1
:100BF0004D925D926D927D9234960A171B0759F7BC
:100C000029013A01440C551C661C771C440C551CE8
:100C1000661C771C440C551C661C771C49AE5AAEEA
:100C20006BAE7CAE03E0ECD200E205D32DAF3EAF5D
:100C30004FAF21965FAF21978401085F1F4FBE0120
:100C40006F5F7F4FC801BEDCD801F401E85AFF4F47
:100C50004D915D916D917D9140835183628373834A
:100C60003496EA16FB06A1F7C85BDF4F0FB6F8947F
:100C7000DEBF0FBECDBFDF91CF911F910F91FF90CF
:100C8000EF90DF90CF90BF90AF909F908F907F902C
:100C90006F905F904F90089588E790E0AC01401B03
:100CA000510B8A014DCF0F931F93CF93DF93CDB795
:100CB000DEB7C856D1090FB6F894DEBF0FBECDBF60
:100CC000FC018B0119821A821B821C821D821E82EA
:100CD0001F82188681E093E2A5E4B7E689879A87A8
:100CE000AB87BC8789E89BEAADECBFEE8D879E871A
:100CF000AF87B88B8EEF9CEDAAEBB8E9898B9A8B06
:100D0000AB8BBC8B86E794E5A2E3B0E18D8B9E8B29
:100D1000AF8BB88FDF010D900020E9F71197AD017F
:100D20004E1B5F0BBF01CE010196F3DDCE01019694
:100D3000DEDE80E1FE01E75AFF4FD80101900D92FF
:100D40008A95E1F7C859DF4F0FB6F894DEBF0FBEA2
:100D5000CDBFDF91CF911F910F910895CDB7DEB731
:100D6000C85AD1090FB6F894DEBF0FBECDBF85E3D8
:100D700087BB9CE194BB92E091BB88BB8CE385BBB5
:100D800012BA6DDA88E090E04BDB789400E010E076
:100D90006FEFC801BFDA0F5F1F4F011520E8120780
:100DA000B9F76BDACE0101967C01FE01E759FF4FDE
:100DB0006F0144244394512C49DB9C018115F1E0DF
:100DC0009F07D0F7182F80ED820F8A3038F08FE917
:100DD000820F863008F03EC089EA820F20916000C1
:100DE00030916100232BC1F42091610230916202A5
:100DF00022953295307F3227207F3227282B30935F
:100E000062022093610280915F0290916002892BBF
:100E100099F6812F39DBD0CF60915E026295607FB9
:100E2000682B60935E02809163028F5F8093630200
:100E3000823048F38091620081117EC1809161020D
:100E400090916202019690936202809361021092E7
:100E50006302D9CF8FEB820F863018F489EC820FB2
:100E6000BDCF2152243508F0A7CFE22F220FFF0B70
:100E7000E05EF34F099480916200811509F49CCFE4
:100E800000E010E060E0C80145DA0F5F1F4F011578
:100E9000F0E81F07B9F700E010E007C00F5F1F4F31
:100EA000011530E8130709F44DC1C8014BDA81156B
:100EB000A9F31F928F931F921F921F930F9387E2A4
:100EC00092E09F938F93FF92EF92E2D1C701EDDA08
:100ED0000FB6F894DEBF0FBECDBF6ECF809162001B
:100EE000811509F469CFA12CB12C6FEFC50112DA7D
:100EF0003FEFA31AB30AA11480E8B806B1F783CF75
:100F0000C198B99A9FEFEFE7F4E09150E040F040CC
:100F1000E1F700C00000B998C19A80915F029091FA
:100F2000600275CFAD98A59A0000A59880915F02E8
:100F3000909160026CCF80916200811509F43CCFE2
:100F4000C70116DBAA24BB24AC18BD0880E090E8DA
:100F50003C016C187D089601205C3F4F49018601D9
:100F6000C8018A0D9B1DEED9F80181938F018E1661
:100F70009F06B1F740E450E0B601C701CADCF0E4D7
:100F8000AF0EB11CA614B70451F7C701B0DD8CE158
:100F900092E08BDA8E01075A1F4F22E2A22E22E046
:100FA000B22EF80181918F011F928F93BF92AF9261
:100FB000DF92CF926DD1C60178DA0F900F900F902B
:100FC0000F900F900F90C016D10659F78AE05CDAA7
:100FD000F3CE109261001092600010926302809133
:100FE0005F029091600213CF48D9E6CE80916200F3
:100FF000811509F4E1CE812C912C32E1632E32E08F
:10100000732E45E1A42E42E0B42E809161029091AE
:1010100062029401280F391F37FD52C03F932F936E
:101020008BE092E09F938F93FF92EF9231D1C701B3
:101030003CDA0F900F900F900F900F900F9000E000
:1010400010E012C07F926F921F928F93BF92AF9267
:10105000FF92EF921DD1C70128DA0F5F1F4F0FB625
:10106000F894DEBF0FBECDBF809161029091620205
:10107000880D991D800F911F65D90F30110511F74B
:10108000EAE0F2E0FF93EF931F928F93BF92AF924B
:10109000FF92EF92FDD0C70108DA8AE0F5D930E17E
:1010A000830E911C0FB6F894DEBF0FBECDBF811426
:1010B00091E0990609F0A9CF8091610290916202B6
:1010C000880D991D909362028093610275CEAA9A51
:1010D000C49AC59A81B3837081BB84B38C7F84BB6F
:1010E000AB9AAC98B998C19A1092620080915F0255
:1010F000909160028CCE5092600240925F025CCE72
:101100001092600210925F021BE2812FBDD954CE73
:1011100050926100409260001092630280915F02E1
:101120009091600274CE9BD821E020936200809160
:101130005F02909160026BCE809161029091620299
:10114000E9D87CCE00E010E065E5C801E3D80F5F88
:101150001F4F011580E81807B9F700E010E006C03E
:101160000F5F1F4F0115F0E81F0751F0C801EAD8C3
:101170008535B1F31F928F931F9285E58F939DCE96
:1011800000E010E06AEAC801C5D80F5F1F4F0115E3
:1011900020E81207B9F700E010E006C00F5F1F4F0C
:1011A000011590E8190751F0C801CCD88A3AB1F37B
:1011B0001F928F931F928AEA8F937FCE00E010E0F8
:1011C0006FEFC801A7D80F5F1F4F0115E0E81E079A
:1011D000B9F700E010E006C00F5F1F4F011530E8BF
:1011E000130751F0C801AED88F3FB1F31F928F9310
:1011F0001F928FEF8F9361CE83E592E056D9DCCDBD
:10120000002E083090F0982F872F762F652F542FBF
:10121000432F322F22270850F4CF220F331F441FB1
:10122000551F661F771F881F991F0A95B2F7002D5B
:10123000089597FD1094002E083098F00850232F41
:10124000342F452F562F672F782F892F912DF4CFCC
:101250001594979587957795679557954795379501
:1012600027950A95AAF71124002D08952A0D3B1DF4
:101270004C1D5D1D6E1D7F1D801F911F08952A1935
:101280003B094C095D096E097F09800B910B08959C
:10129000AEE0B0E0EDE4F9E0A8C20D891E8986E079
:1012A0008C831A8309838FEF9FE79E838D83AE0122
:1012B000475E5F4F6F89788DCE01019609D02F81EF
:1012C0003885020F131FF80110822E96E4E0A9C2A0
:1012D000ABE0B0E0EDE6F9E07DC26C017B018A0194
:1012E000FC0117821682838181FFCAC19AE0592EC0
:1012F000F6012381F70123FD859123FF81917F0171
:10130000811509F418C1853239F423FD959123FF25
:1013100091917F01953221F4B60190E0CAD1E8CFD6
:1013200030E0912C612C712CF0E27F1640F59B325D
:10133000D9F058F49032D1F09332F1F09E3299F511
:1013400076FCF9C0689476F806C09D3291F090332F
:10135000C1F4689470F8F70123FD959123FF9191F2
:101360007F019111E1CF29C0689471F8689472F8F7
:10137000F2CF689473F8EFCF689474F8ECCF77FCF1
:101380001CC080ED890F8A30C8F676FE05C0959C9A
:10139000800D1124982EDFCF659C800D1124682EBE
:1013A000689475F8D8CF9C3619F4689477F8D3CF41
:1013B0009C3409F44AC0983671F2892F8F7D855488
:1013C000833008F444C0933609F464C0933709F4B9
:1013D00067C0933509F472C0943619F0993609F054
:1013E00099C0F80177FE8FC06191719181919191BF
:1013F0008F01272D2F76822E97FF09C0909580951B
:10140000709561957F4F8F4F9F4F689487F82AE0C2
:1014100030E0AE014F5F5F4F5A017BD18A19A82E91
:1014200086FEBDC0882D8E7FA91408F0B7C084FE4B
:1014300006C182FCFAC0F82DFE7E8F2EB92C882DB5
:101440008678811509F4B8C0F5C031E084CF311534
:10145000F1F0085F1F4F8FE3898388248394912CD8
:10146000AE014F5F5F4F5A01E89477F873FC03C0F9
:101470008614910498F181149104B1F5611409F472
:1014800037CFB60180E290E014D16A94F7CF0C5FB9
:101490001F4FE1CFF801808189830E5F1F4FDDCFA1
:1014A000F801A190B1908F01692D70E076FC02C027
:1014B0006FEF7FEFC501F2D04C01D6CFF801A190BC
:1014C000B1908F01692D70E076FC02C06FEF7FEF65
:1014D000C501D9D04C01689477F8C8CFB60180E235
:1014E00090E0E7D06A94C4CFF50177FC859177FE50
:1014F00081915F01B60190E0DCD061106A94F1E067
:101500008F1A9108B8CF61917191072E000C880B4A
:10151000990B6ECF872CE89484F82AE030E0953759
:1015200031F1572D597F852E903791F050F4983531
:10153000A1F09F36D1F0F601868197812B96EFE0DE
:1015400065C19837C1F774FC05C020E130E00FC0D9
:10155000689484F8689482F8F8CF74FE03C0872DED
:101560008660882E20E132E002C028E030E0F801F9
:1015700087FE0FC061917191819191918F01FE0160
:1015800031965F01AF01C5D08A19A82EE89487F87B
:1015900047CF6191719180E090E0F0CF882EBA2C16
:1015A00084FE4DCFFE01EA0DF11D8081803309F0EC
:1015B0003FC0282D297E822E83FC0EC080FE4AC0AB
:1015C0009A2CB61418F4960C9B18B62C862D8B19F1
:1015D0006B1408F480E0B80EB614F0F56B1884FEB6
:1015E0003DC0B60180E390E064D082FE08C088E58B
:1015F00090E081FC02C088E790E0B6015AD0A914BF
:10160000C8F1AA94B12C4FEFA41AB40ACE010196E6
:101610004C01A80EB91EF50182915F01B60190E060
:1016200048D08A149B04B9F729CFB92C882EBACF99
:1016300082FC02C0B394C0CFB394B394BDCFB92C95
:10164000882EFDCEB60180E290E033D073947614FC
:10165000C8F3BCCF7B2CFBCF612CC1CF882D867803
:10166000811569F280E281FC8BE287FC8DE2B60194
:1016700090E0C4CFB60180E390E01BD09A94BFCF36
:101680008FEF9FEF5BCFFC01059061507040011020
:10169000D8F7809590958E0F9F1F0895FC0161509B
:1016A000704001900110D8F7809590958E0F9F1F84
:1016B00008950F931F93CF93DF93182F092FEB01FA
:1016C0008B8181FD09C01FEF0FEF812F902FDF91DC
:1016D000CF911F910F91089582FF14C02E813F81F9
:1016E0008C819D81281739073CF4E881F981CF016D
:1016F00001969983888310838E819F8101969F83B1
:101700008E83E3CFE885F985812F0995892BA1F395
:10171000DACFFA01AA27283051F1203181F1E8947B
:101720006F936E7F6E5F7F4F8F4F9F4FAF4FB1E0D4
:101730003ED0B4E03CD0670F781F891F9A1FA11DCF
:10174000680F791F8A1F911DA11D6A0F711D811DD0
:10175000911DA11D20D009F468943F912AE0269F95
:1017600011243019305D3193DEF6CF010895462FF4
:101770004770405D4193B3E00FD0C9F7F6CF462FD5
:101780004F70405D4A3318F0495D31FD405241933E
:1017900002D0A9F7EACFB4E0A695979587957795FB
:1017A0006795BA95C9F700976105710508959B0182
:1017B000AC010A2E06945795479537952795BA950B
:1017C000C9F7620F731F841F951FA01D08952F92E4
:1017D0003F924F925F926F927F928F929F92AF92C1
:1017E000BF92CF92DF92EF92FF920F931F93CF930E
:1017F000DF93CDB7DEB7CA1BDB0B0FB6F894DEBFA5
:101800000FBECDBF09942A88398848885F846E84CA
:101810007D848C849B84AA84B984C884DF80EE8014
:10182000FD800C811B81AA81B981CE0FD11D0FB61D
:10183000F894DEBF0FBECDBFED010895F894FFCF41
:1018400072CCBACA65CCB8CAB7CAB6CAB5CAB4CA25
:10185000B3CAB2CA55CCB0CA4ECC39CCADCAACCAE8
:10186000ABCAAACAA9CAA8CAA7CAA6CAA5CAA4CAEC
:10187000A3CAA2CAA1CAA0CAB9CB9ECAB5CBA9CBDA
:101880009BCA9ACA99CA98CA97CA96CA95CA94CA4C
:1018900093CA92CA91CA90CA8FCA8ECA8DCA8CCA7C
:1018A0008BCA8ACA89CA88CA87CA86CA85CA84CAAC
:1018B00083CA82CA81CA80CA7FCA7ECA7DCA7CCADC
:1018C0007BCA7ACA79CA78CA77CA76CA75CA74CA0C
:1018D00073CA72CA71CA70CA2ECB6ECA6DCA6CCA7C
:0818E00021CB0ECBFBCAC7CAE5
:1018E800010001800000000000000000000000006E
:1018F80000000000000000000000000000000000E0
:1019080000000000000000000000000000000000CF
:1019180000000000000000000000000000000000BF
:101928000000004550524F4D20456D756C61746F35
:10193800720A412E4B2E20323032340A436F6D6DBD
:10194800616E64733A0A00093F202D207468697338
:101958002068656C700A000921202D20636C61697C
:101968006D206275732C206D656D6F7279206564CA
:1019780069742C20617373657274202F5253540A52
:1019880000092E202D2072656C65617365206275D3
:10199800732C206465617373657274202F525354DD
:1019A8000A000940202D2073657420616464726503
:1019B8007373206D6F64650A000923202D207365F9
:1019C800742064617461206D6F64650A00093D20AC
:1019D8002D2064756D7020323536206279746573F8
:1019E80020406164647265730A000974202D206DBB
:1019F800656D6F727920746573740A00092B202D48
:101A0800206563686F206F6E0A00092D202D206500
:101A180063686F206F66660A00096D202D20636178
:101A28006C63756C617465206D64352073756D0A1F
:101A3800000973202D20636C656172206D656D6FE0
:101A480072792028616C6C2030786666290A000952
:101A580072202D20726573657420746172676574D5
:101A6800202870756C7365202F525354290A000979
:101A780071202D2073656E6420495251202870759D
:101A88006C7365202F495251290A00253034783A61
:101A980020002C2000253032782573006D64353AFB
:101AA800200025303278004661696C204030782566
:101AB80030347820286578706563746564203078E0
:101AC800253032782C20676F7420307825303278B2
:0E1AD800290A004D656D6F7279204F4B0A0090
:00000001FF
